{
  "_format": "hh-sol-artifact-1",
  "contractName": "kickstarter",
  "sourceName": "contracts/kickstarter.sol",
  "abi": [
    {
      "inputs": [
        {
          "internalType": "uint256",
          "name": "",
          "type": "uint256"
        }
      ],
      "name": "campaigns",
      "outputs": [
        {
          "internalType": "address",
          "name": "owner",
          "type": "address"
        },
        {
          "internalType": "string",
          "name": "title",
          "type": "string"
        },
        {
          "internalType": "string",
          "name": "description",
          "type": "string"
        },
        {
          "internalType": "uint256",
          "name": "target",
          "type": "uint256"
        },
        {
          "internalType": "uint256",
          "name": "deadline",
          "type": "uint256"
        },
        {
          "internalType": "uint256",
          "name": "amountCollected",
          "type": "uint256"
        },
        {
          "internalType": "string",
          "name": "image",
          "type": "string"
        }
      ],
      "stateMutability": "view",
      "type": "function"
    },
    {
      "inputs": [
        {
          "internalType": "string",
          "name": "_title",
          "type": "string"
        },
        {
          "internalType": "string",
          "name": "_description",
          "type": "string"
        },
        {
          "internalType": "uint256",
          "name": "_target",
          "type": "uint256"
        },
        {
          "internalType": "uint256",
          "name": "_deadline",
          "type": "uint256"
        },
        {
          "internalType": "string",
          "name": "_image",
          "type": "string"
        }
      ],
      "name": "createCampaign",
      "outputs": [
        {
          "internalType": "uint256",
          "name": "",
          "type": "uint256"
        }
      ],
      "stateMutability": "nonpayable",
      "type": "function"
    },
    {
      "inputs": [
        {
          "internalType": "uint256",
          "name": "_id",
          "type": "uint256"
        }
      ],
      "name": "donateToCampaign",
      "outputs": [],
      "stateMutability": "payable",
      "type": "function"
    },
    {
      "inputs": [],
      "name": "getCampaigns",
      "outputs": [
        {
          "components": [
            {
              "internalType": "address",
              "name": "owner",
              "type": "address"
            },
            {
              "internalType": "string",
              "name": "title",
              "type": "string"
            },
            {
              "internalType": "string",
              "name": "description",
              "type": "string"
            },
            {
              "internalType": "uint256",
              "name": "target",
              "type": "uint256"
            },
            {
              "internalType": "uint256",
              "name": "deadline",
              "type": "uint256"
            },
            {
              "internalType": "uint256",
              "name": "amountCollected",
              "type": "uint256"
            },
            {
              "internalType": "string",
              "name": "image",
              "type": "string"
            },
            {
              "internalType": "address[]",
              "name": "donators",
              "type": "address[]"
            },
            {
              "internalType": "uint256[]",
              "name": "donations",
              "type": "uint256[]"
            }
          ],
          "internalType": "struct kickstarter.Campaign[]",
          "name": "",
          "type": "tuple[]"
        }
      ],
      "stateMutability": "view",
      "type": "function"
    },
    {
      "inputs": [
        {
          "internalType": "uint256",
          "name": "_id",
          "type": "uint256"
        }
      ],
      "name": "getDonators",
      "outputs": [
        {
          "internalType": "address[]",
          "name": "",
          "type": "address[]"
        },
        {
          "internalType": "uint256[]",
          "name": "",
          "type": "uint256[]"
        }
      ],
      "stateMutability": "view",
      "type": "function"
    },
    {
      "inputs": [],
      "name": "numberOfCampaigns",
      "outputs": [
        {
          "internalType": "uint256",
          "name": "",
          "type": "uint256"
        }
      ],
      "stateMutability": "view",
      "type": "function"
    }
  ],
  "bytecode": "0x6080604052600060015534801561001557600080fd5b50611873806100256000396000f3fe6080604052600436106100555760003560e01c806307ca140d1461005a5780630fa91fa914610085578063141961bc146100c357806342a4fda814610106578063a6b0363314610122578063d4e3dd6f1461014d575b600080fd5b34801561006657600080fd5b5061006f61018a565b60405161007c9190610b3e565b60405180910390f35b34801561009157600080fd5b506100ac60048036038101906100a79190610b99565b610190565b6040516100ba929190610d74565b60405180910390f35b3480156100cf57600080fd5b506100ea60048036038101906100e59190610b99565b6102a0565b6040516100fd9796959493929190610e4a565b60405180910390f35b610120600480360381019061011b9190610b99565b61049a565b005b34801561012e57600080fd5b506101376105c7565b6040516101449190611199565b60405180910390f35b34801561015957600080fd5b50610174600480360381019061016f91906112f0565b61099d565b6040516101819190610b3e565b60405180910390f35b60015481565b6060806000808481526020019081526020016000206007016000808581526020019081526020016000206008018180548060200260200160405190810160405280929190818152602001828054801561023e57602002820191906000526020600020905b8160009054906101000a900473ffffffffffffffffffffffffffffffffffffffff1673ffffffffffffffffffffffffffffffffffffffff16815260200190600101908083116101f4575b505050505091508080548060200260200160405190810160405280929190818152602001828054801561029057602002820191906000526020600020905b81548152602001906001019080831161027c575b5050505050905091509150915091565b60006020528060005260406000206000915090508060000160009054906101000a900473ffffffffffffffffffffffffffffffffffffffff16908060010180546102e9906113ee565b80601f0160208091040260200160405190810160405280929190818152602001828054610315906113ee565b80156103625780601f1061033757610100808354040283529160200191610362565b820191906000526020600020905b81548152906001019060200180831161034557829003601f168201915b505050505090806002018054610377906113ee565b80601f01602080910402602001604051908101604052809291908181526020018280546103a3906113ee565b80156103f05780601f106103c5576101008083540402835291602001916103f0565b820191906000526020600020905b8154815290600101906020018083116103d357829003601f168201915b505050505090806003015490806004015490806005015490806006018054610417906113ee565b80601f0160208091040260200160405190810160405280929190818152602001828054610443906113ee565b80156104905780601f1061046557610100808354040283529160200191610490565b820191906000526020600020905b81548152906001019060200180831161047357829003601f168201915b5050505050905087565b6000806000838152602001908152602001600020905080600701339080600181540180825580915050600190039060005260206000200160009091909190916101000a81548173ffffffffffffffffffffffffffffffffffffffff021916908373ffffffffffffffffffffffffffffffffffffffff160217905550806008013490806001815401808255809150506001900390600052602060002001600090919091909150558060000160009054906101000a900473ffffffffffffffffffffffffffffffffffffffff1673ffffffffffffffffffffffffffffffffffffffff166108fc349081150290604051600060405180830381858888f193505050501580156105aa573d6000803e3d6000fd5b503481600501546105bb919061144e565b81600501819055505050565b6060600060015467ffffffffffffffff8111156105e7576105e66111c5565b5b60405190808252806020026020018201604052801561062057816020015b61060d610ac3565b8152602001906001900390816106055790505b50905060005b600154811015610995576000806000838152602001908152602001600020905080604051806101200160405290816000820160009054906101000a900473ffffffffffffffffffffffffffffffffffffffff1673ffffffffffffffffffffffffffffffffffffffff1673ffffffffffffffffffffffffffffffffffffffff1681526020016001820180546106b9906113ee565b80601f01602080910402602001604051908101604052809291908181526020018280546106e5906113ee565b80156107325780601f1061070757610100808354040283529160200191610732565b820191906000526020600020905b81548152906001019060200180831161071557829003601f168201915b5050505050815260200160028201805461074b906113ee565b80601f0160208091040260200160405190810160405280929190818152602001828054610777906113ee565b80156107c45780601f10610799576101008083540402835291602001916107c4565b820191906000526020600020905b8154815290600101906020018083116107a757829003601f168201915b505050505081526020016003820154815260200160048201548152602001600582015481526020016006820180546107fb906113ee565b80601f0160208091040260200160405190810160405280929190818152602001828054610827906113ee565b80156108745780601f1061084957610100808354040283529160200191610874565b820191906000526020600020905b81548152906001019060200180831161085757829003601f168201915b505050505081526020016007820180548060200260200160405190810160405280929190818152602001828054801561090257602002820191906000526020600020905b8160009054906101000a900473ffffffffffffffffffffffffffffffffffffffff1673ffffffffffffffffffffffffffffffffffffffff16815260200190600101908083116108b8575b505050505081526020016008820180548060200260200160405190810160405280929190818152602001828054801561095a57602002820191906000526020600020905b815481526020019060010190808311610946575b50505050508152505083838151811061097657610975611482565b5b602002602001018190525050808061098d906114b1565b915050610626565b508091505090565b60008060008060015481526020019081526020016000209050428160040154106109fc576040517f08c379a00000000000000000000000000000000000000000000000000000000081526004016109f39061156b565b60405180910390fd5b338160000160006101000a81548173ffffffffffffffffffffffffffffffffffffffff021916908373ffffffffffffffffffffffffffffffffffffffff16021790555086816001019081610a509190611737565b5085816002019081610a629190611737565b508481600301819055508381600401819055506000816005018190555082816006019081610a909190611737565b5060016000815480929190610aa4906114b1565b919050555060018054610ab79190611809565b91505095945050505050565b604051806101200160405280600073ffffffffffffffffffffffffffffffffffffffff16815260200160608152602001606081526020016000815260200160008152602001600081526020016060815260200160608152602001606081525090565b6000819050919050565b610b3881610b25565b82525050565b6000602082019050610b536000830184610b2f565b92915050565b6000604051905090565b600080fd5b600080fd5b610b7681610b25565b8114610b8157600080fd5b50565b600081359050610b9381610b6d565b92915050565b600060208284031215610baf57610bae610b63565b5b6000610bbd84828501610b84565b91505092915050565b600081519050919050565b600082825260208201905092915050565b6000819050602082019050919050565b600073ffffffffffffffffffffffffffffffffffffffff82169050919050565b6000610c1d82610bf2565b9050919050565b610c2d81610c12565b82525050565b6000610c3f8383610c24565b60208301905092915050565b6000602082019050919050565b6000610c6382610bc6565b610c6d8185610bd1565b9350610c7883610be2565b8060005b83811015610ca9578151610c908882610c33565b9750610c9b83610c4b565b925050600181019050610c7c565b5085935050505092915050565b600081519050919050565b600082825260208201905092915050565b6000819050602082019050919050565b610ceb81610b25565b82525050565b6000610cfd8383610ce2565b60208301905092915050565b6000602082019050919050565b6000610d2182610cb6565b610d2b8185610cc1565b9350610d3683610cd2565b8060005b83811015610d67578151610d4e8882610cf1565b9750610d5983610d09565b925050600181019050610d3a565b5085935050505092915050565b60006040820190508181036000830152610d8e8185610c58565b90508181036020830152610da28184610d16565b90509392505050565b610db481610c12565b82525050565b600081519050919050565b600082825260208201905092915050565b60005b83811015610df4578082015181840152602081019050610dd9565b60008484015250505050565b6000601f19601f8301169050919050565b6000610e1c82610dba565b610e268185610dc5565b9350610e36818560208601610dd6565b610e3f81610e00565b840191505092915050565b600060e082019050610e5f600083018a610dab565b8181036020830152610e718189610e11565b90508181036040830152610e858188610e11565b9050610e946060830187610b2f565b610ea16080830186610b2f565b610eae60a0830185610b2f565b81810360c0830152610ec08184610e11565b905098975050505050505050565b600081519050919050565b600082825260208201905092915050565b6000819050602082019050919050565b600082825260208201905092915050565b6000610f1682610dba565b610f208185610efa565b9350610f30818560208601610dd6565b610f3981610e00565b840191505092915050565b600082825260208201905092915050565b6000610f6082610bc6565b610f6a8185610f44565b9350610f7583610be2565b8060005b83811015610fa6578151610f8d8882610c33565b9750610f9883610c4b565b925050600181019050610f79565b5085935050505092915050565b600082825260208201905092915050565b6000610fcf82610cb6565b610fd98185610fb3565b9350610fe483610cd2565b8060005b83811015611015578151610ffc8882610cf1565b975061100783610d09565b925050600181019050610fe8565b5085935050505092915050565b60006101208301600083015161103b6000860182610c24565b50602083015184820360208601526110538282610f0b565b9150506040830151848203604086015261106d8282610f0b565b91505060608301516110826060860182610ce2565b5060808301516110956080860182610ce2565b5060a08301516110a860a0860182610ce2565b5060c083015184820360c08601526110c08282610f0b565b91505060e083015184820360e08601526110da8282610f55565b9150506101008301518482036101008601526110f68282610fc4565b9150508091505092915050565b600061110f8383611022565b905092915050565b6000602082019050919050565b600061112f82610ece565b6111398185610ed9565b93508360208202850161114b85610eea565b8060005b8581101561118757848403895281516111688582611103565b945061117383611117565b925060208a0199505060018101905061114f565b50829750879550505050505092915050565b600060208201905081810360008301526111b38184611124565b905092915050565b600080fd5b600080fd5b7f4e487b7100000000000000000000000000000000000000000000000000000000600052604160045260246000fd5b6111fd82610e00565b810181811067ffffffffffffffff8211171561121c5761121b6111c5565b5b80604052505050565b600061122f610b59565b905061123b82826111f4565b919050565b600067ffffffffffffffff82111561125b5761125a6111c5565b5b61126482610e00565b9050602081019050919050565b82818337600083830152505050565b600061129361128e84611240565b611225565b9050828152602081018484840111156112af576112ae6111c0565b5b6112ba848285611271565b509392505050565b600082601f8301126112d7576112d66111bb565b5b81356112e7848260208601611280565b91505092915050565b600080600080600060a0868803121561130c5761130b610b63565b5b600086013567ffffffffffffffff81111561132a57611329610b68565b5b611336888289016112c2565b955050602086013567ffffffffffffffff81111561135757611356610b68565b5b611363888289016112c2565b945050604061137488828901610b84565b935050606061138588828901610b84565b925050608086013567ffffffffffffffff8111156113a6576113a5610b68565b5b6113b2888289016112c2565b9150509295509295909350565b7f4e487b7100000000000000000000000000000000000000000000000000000000600052602260045260246000fd5b6000600282049050600182168061140657607f821691505b602082108103611419576114186113bf565b5b50919050565b7f4e487b7100000000000000000000000000000000000000000000000000000000600052601160045260246000fd5b600061145982610b25565b915061146483610b25565b925082820190508082111561147c5761147b61141f565b5b92915050565b7f4e487b7100000000000000000000000000000000000000000000000000000000600052603260045260246000fd5b60006114bc82610b25565b91507fffffffffffffffffffffffffffffffffffffffffffffffffffffffffffffffff82036114ee576114ed61141f565b5b600182019050919050565b7f54686520646561646c696e652073686f756c642062652061206461746120696e60008201527f2074686520667574757265000000000000000000000000000000000000000000602082015250565b6000611555602b83610dc5565b9150611560826114f9565b604082019050919050565b6000602082019050818103600083015261158481611548565b9050919050565b60008190508160005260206000209050919050565b60006020601f8301049050919050565b600082821b905092915050565b6000600883026115ed7fffffffffffffffffffffffffffffffffffffffffffffffffffffffffffffffff826115b0565b6115f786836115b0565b95508019841693508086168417925050509392505050565b6000819050919050565b600061163461162f61162a84610b25565b61160f565b610b25565b9050919050565b6000819050919050565b61164e83611619565b61166261165a8261163b565b8484546115bd565b825550505050565b600090565b61167761166a565b611682818484611645565b505050565b5b818110156116a65761169b60008261166f565b600181019050611688565b5050565b601f8211156116eb576116bc8161158b565b6116c5846115a0565b810160208510156116d4578190505b6116e86116e0856115a0565b830182611687565b50505b505050565b600082821c905092915050565b600061170e600019846008026116f0565b1980831691505092915050565b600061172783836116fd565b9150826002028217905092915050565b61174082610dba565b67ffffffffffffffff811115611759576117586111c5565b5b61176382546113ee565b61176e8282856116aa565b600060209050601f8311600181146117a1576000841561178f578287015190505b611799858261171b565b865550611801565b601f1984166117af8661158b565b60005b828110156117d7578489015182556001820191506020850194506020810190506117b2565b868310156117f457848901516117f0601f8916826116fd565b8355505b6001600288020188555050505b505050505050565b600061181482610b25565b915061181f83610b25565b92508282039050818111156118375761183661141f565b5b9291505056fea2646970667358221220ea5080a5522cfd799bb7417645b21e2ea1d7c5ce6ec1f04a9e36f0585b60ab8664736f6c63430008110033",
  "linkReferences": {},
  "deployedLinkReferences": {}
}